:1000000080311928843403347E1480310B1F092871
:100010000A2817282100111C0E280F281728200055
:10002000111C1328142817289531DF2580317E10E4
:10003000090080311B28803102208031EE008031A0
:1000400003208031EF00FA01FB01E801E901EA0138
:10005000EB01EC01ED01A0308400003085001D3083
:1000600095314D2580317E1020008E31952E200057
:1000700037088039BC003C08C1003735BC003C085B
:10008000C700B61F442845284628471447080319C7
:100090004A284B285A28470A031D4F285028582819
:1000A0000030B7000030B6000030B5000030B400BA
:1000B000B61762280030B7000030B6000030B50037
:1000C0000030B4003B088039BC003C08C1063B3519
:1000D000BC003C08C200BA1F6E286F28702842146A
:1000E00042080319742875288428420A031D7928B8
:1000F0007A2882280030BB000030BA000030B900F6
:100100000030B800BA178C280030BB000030BA00AD
:100110000030B9000030B800420803199028912837
:1001200096284708031D952896289F280030B70079
:100130000030B6000030B5000030B4008D2A34081D
:10014000BC003C08F2003A0897313B278031730825
:100150002000CD007208CC004C08BC00BD01BE01DF
:10016000BF013F08C6003E08C5003D08C4003C086A
:10017000C3004D08BC00BD01BE01BF013F08CB005C
:100180003E08CA003D08C9003C08C8003508BC004C
:100190003C08F200390897313B2780317308200072
:1001A000CD007208CC004C08BC00BD01BE01BF01EF
:1001B0003C08C3073D08C43D3E08C53D3F08C63D59
:1001C0004D08BC00BD01BE01BF013C08C8073D0889
:1001D000C93D3E08CA3D3F08CB3D3608BC003C083F
:1001E000F200380897313B27803173082000CD009A
:1001F0007208CC004C08BC00BD01BE01BF013C0828
:10020000C3073D08C43D3E08C53D3F08C63D4D08F7
:10021000BC00BD01BE01BF013C08C8073D08C93D87
:100220003E08CA3D3F08CB3D0830C335C40DC50D5F
:10023000C60D890B15293508BC003C08F2003808AA
:1002400097313B27803173082000CD007208CC0025
:100250004C08C3074D08C43D0030C53DC63D3408B9
:10026000BC003C08F200390897313B278031730805
:100270002000CD007208CC004C08C3074D08C43DD7
:100280000030C53DC63D0830C335C40DC50DC60D93
:10029000890B44293408BC003C08F2003808973127
:1002A0003B27803173082000CD007208CC004C0839
:1002B000C3074D08C43D0030C53DC63D3508BC00F0
:1002C0003C08F2003A0897313B2780317308200040
:1002D000CD007208CC004C08C8074D08C93D00305D
:1002E000CA3DCB3D3608BC003C08F20039089731C6
:1002F0003B27803173082000CD007208CC004C08E9
:10030000C8074D08C93D0030CA3DCB3D3608BC008A
:100310003C08F2003A0897313B27803173082000EF
:10032000CD007208CC004C08BC004D08BD00BE01D9
:10033000BF010830BC35BD0DBE0DBF0D890B9A291C
:100340003C08C8073D08C93D3E08CA3D3F08CB3DB3
:100350004308BC004408BD004508BE004608BF0075
:100360001830BF36BE0CBD0CBC0C890BB1293C0843
:10037000C8073D08C93D3E08CA3D3F08CB3D08308F
:10038000C335C40DC50DC60D890BC02947084207EA
:10039000BC00BD01BD0D3C08823ECC00FF303D3DA0
:1003A000CD00E9290130C835C90DCA0DCB0D890B27
:1003B000D329C61FDC29DD29DE2948140130C335C5
:1003C000C40DC50DC60D890BDF29FF30CC07FF30EA
:1003D000CD3DCA1FEC29ED29D229C201C61FF12942
:1003E000F2290E2AFF304305BC00FF304405BD0052
:1003F000FF304505BE007F304605BF003F083E0484
:100400003D043C040319052A062A092AC201C20A2E
:100410000E2A481C0C2A0D2A0E2A062A4208031905
:10042000122A132A3B2A0130C8070030C93D003088
:10043000CA3D0030CB3D4B1C1E2A1F2A3B2A4808D0
:10044000BC004908BD004A08BE004B08BF0001308F
:10045000C000BF37BE0CBD0CBC0CC00B292A3F0826
:10046000CB003E08CA003D08C9003C08C800013066
:10047000CC070030CD3D4D08803ABC0080303C02B6
:10048000031D442AFF304C02031C472A482A522AE3
:100490007F302000CB008030CA000030C90000301F
:1004A000C800812A20004D08803ABC0080303C0200
:1004B000031D5C2A01304C0203185F2A602A6B2A54
:1004C00000302000CB000030CA000030C9000030EE
:1004D000C800C101812A20004C08BC003C08C700AC
:1004E000FF30C805FF30C9057F30CA050030CB0595
:1004F000471C7B2A7C2A7D2ACA174736BC003C0849
:10050000CB004108BC003C08CB044B08B7004A08AC
:10051000B6004908B5004808B400080075088039DD
:100520002000A0002008A8007535A0002008AA001F
:10053000F41F9B2A9C2A9D2A2A142A080319A12AFF
:10054000A22AB22A2A0A031DA62AA72AAF2A003005
:10055000F5000030F4000030F3000030F200F41732
:10056000F501BA2A0030F5000030F4000030F30045
:100570000030F20079088039A0002008A90029087D
:1005800028060319C42AC52AC62A28177935A000C7
:100590002008A900F81FCD2ACE2ACF2A291429081D
:1005A0000319D32AD42AE42A290A031DD82AD92ACE
:1005B000E12A0030F9000030F8000030F700003088
:1005C000F600F817F901EC2A0030F9000030F800C5
:1005D0000030F7000030F6002A0829020318F12A3B
:1005E000F22A362B281FF52AF62AFA2A8030A00094
:1005F0002008A8062A08A0002008AB002908A000AF
:100600002008AA002B08A0002008A9007208A0005A
:100610002008AB007608A0002008F2002B08A000FC
:100620002008F6007308A0002008AB007708A0009F
:100630002008F3002B08A0002008F7007408A00091
:100640002008AB007808A0002008F4002B08A000C8
:100650002008F8007508A0002008AB007908A00069
:100660002008F5002B08A0002008F900AB0129089C
:10067000A000A1012108A3002A082002A200031C57
:10068000A3032308803AA40080302402031D4A2BD0
:100690001A302202031C4D2B4E2B862B7508740436
:1006A00073047204031D552B572B0130582B003057
:1006B0002000A0002008AB000030F5000030F4005E
:1006C0000030F3000030F2002908A0002008AA0042
:1006D0008D2B2B1C6C2B6D2B732B2B360138A00014
:1006E0002008AB00752B0310AB0C721C782B792BF8
:1006F0007A2BAB170130A000F537F40CF30CF20C99
:10070000A00B7C2B0130A0002008AA07200029089C
:100710002A02031C8C2B8D2B692B281B902B912BD1
:10072000C92B2A08031D952B962B9F2B0030F50013
:100730000030F4000030F3000030F200C52C7608E1
:10074000F2077708F33D7808F43D7908F53D751C0C
:10075000AA2BAB2B552C2B1CAE2BAF2BB52B2B3632
:100760000138A0002008AB00B72B0310AB0C721CA3
:10077000BA2BBB2BBC2BAB170130A000F537F40C08
:10078000F30CF20CA00BBE2B0130A0002008AA072E
:10079000552C7508803AA0007908803A2002031D84
:1007A000DB2B78087402031DDB2B77087302031D13
:1007B000DB2B760872020318DE2BDF2B172CFF30A1
:1007C000A000FF30A100FF30A200FF30A30072089C
:1007D0007602A4007308773BA5007408783BA60056
:1007E0007508793BA7002408A0072508A13D260825
:1007F000A23D2708A33D2308F5002208F4002108A4
:10080000F3002008F2008030A0002008A806AB0901
:10081000AB0A2B08031D0D2C0E2C1F2C0130F207E8
:100820000030F33D0030F43D0030F53D1F2C7608DC
:10083000F2027708F33B7808F43B7908F53B75083A
:10084000740473047204031D262C272C512C2B08CE
:10085000031D2B2C2C2C512C0030F5000030F40003
:100860000030F3000030F200C52C0130F235F30DFA
:10087000F40DF50D890B362CAB1F3F2C402C412C71
:1008800072142B1C442C452C482C0314AB0D4A2C01
:100890000310AB0D2A0803194E2C4F2C512C01309C
:1008A000AA02F41F542C552C352CA901AB1F592C2E
:1008B0005A2C682C2B087F3903195F2C602C632C71
:1008C000A901A90A682C721C662C672C682C602C64
:1008D000290803196C2C6D2C9A2C0130F20700307A
:1008E000F33D0030F43D0030F53D751C782C792C3B
:1008F0009A2C7208A0007308A1007408A200750861
:10090000A3000130A400A337A20CA10CA00CA40BDF
:10091000832C2308F5002208F4002108F3002008A6
:10092000F2002A0A0319952C962C9A2C0130A0006B
:100930002008AA072A0A03199E2C9F2CA42C2A08F7
:10094000031DA32CA42CB22C0030F5000030F400C1
:100950000030F3000030F2002A08031DB02CB12C47
:10096000B22CA8012A1CB52CB62CB82CF417BC2C20
:100970007F30A0002008F4052A36A0002008F500EA
:10098000A81FC32CC42CC52CF517080020002D0867
:100990008039AE002E08B7002D35AE002E08BE00FF
:1009A000AC1FD32CD42CD52C3E143E080319D92CC3
:1009B000DA2CEA2C3E0A031DDE2CDF2CE72C00305B
:1009C000AD000030AC000030AB000030AA00AC1726
:1009D000AD01F22C0030AD000030AC000030AB00B7
:1009E0000030AA0029088039AE002E08B706293544
:1009F000AE002E08BF00A81FFE2CFF2C002D3F14B8
:100A00003F080319042D052D152D3F0A031D092D3F
:100A10000A2D122D0030A9000030A8000030A700D8
:100A20000030A600A817A9011D2D0030A900003034
:100A3000A8000030A7000030A600290828042704D9
:100A40002604031D242D252D3E2D0030AD00003041
:100A5000AC000030AB000030AA008030AC047F3026
:100A6000AD043708AE002E08AD042D08A9002C08EF
:100A7000A8002B08A7002A08A600792E3E08031D0F
:100A8000422D432D4C2D0030A9000030A80000302D
:100A9000A7000030A600792E3E08AE00AF012F0857
:100AA000B1003F082E02B000031CB10330087F3EA6
:100AB000B8000030313DB9002D08B6002C08B50053
:100AC0002B08B4002A08B3000030AD000030AC00A1
:100AD0000030AB000030AA000030BD000030BC0088
:100AE0000030BB000030BA00BF01B42D3F0803192D
:100AF0007A2D7B2D952D0130B335B40DB50DB60D86
:100B0000890B7C2D0130AA35AB0DAC0DAD0D890BD9
:100B1000832DBD1F8C2D8D2D8E2D2A140130BA35BD
:100B2000BB0DBC0DBD0D890B8F2D29083602031D91
:100B3000A32D28083502031DA32D27083402031D09
:100B4000A32D26083302031CA62DA72DB02D3D177B
:100B50002608B3022708B43B2808B53B2908B63B52
:100B60000130AE002E08BF071A303F02031CB92D1A
:100B7000BA2D762D36083504340433040319C12DFB
:100B8000C22DDB2D3A14DB2D0130AA35AB0DAC0D97
:100B9000AD0D890BC52DBD1FCE2DCF2DD02D2A1407
:100BA0000130BA35BB0DBC0DBD0D890BD12DFF3009
:100BB000B807FF30B93DAC1FDE2DDF2DC42DBF01BE
:100BC000BD1FE32DE42D002EFF303A05AE00FF30AF
:100BD0003B05AF00FF303C05B0007F303D05B10064
:100BE000310830042F042E040319F72DF82DFB2DA6
:100BF000BF01BF0A002E2A1CFE2DFF2D002EF82D4E
:100C00003F080319042E052E2D2E0130AA070030AF
:100C1000AB3D0030AC3D0030AD3D2D1C102E112EF3
:100C20002D2E2A08AE002B08AF002C08B0002D088E
:100C3000B1000130B200B137B00CAF0CAE0CB20B4A
:100C40001B2E3108AD003008AC002F08AB002E0879
:100C5000AA000130B8070030B93D3908803AAE002B
:100C600080302E02031D362EFF303802031C392E31
:100C70003A2E472EFF302000B8000030B900003077
:100C8000AD000030AC000030AB000030AA00200006
:100C90003908803AAE0080302E02031D512E0130FB
:100CA00038020318542E552E612E2000B801B901C8
:100CB0000030AD000030AC000030AB000030AA00C6
:100CC000B70120003808AE002E08BE003E1C692E79
:100CD0006A2E6C2EAC17702E7F30AE002E08AC053D
:100CE0003E36AE002E08AD003708AE002E08AD042B
:100CF000352D080043302000A900A530A8000030A1
:100D0000A7000030A6006E08F2006F08F300F4019F
:100D1000F50100308D31E825863175082000AD00E1
:100D20007408AC007308AB007208AA008431C624B2
:100D3000863120002908DF002808DE002708DD00B2
:100D40002608DC00E001E1010030F5000030F4008D
:100D50000030F3000030F20000308D31E82586319C
:100D600075082000A9007408A8007308A70072087D
:100D7000A6004330AD00A530AC000030AB00003021
:100D8000AA008D315D258631031CC72EC82EC92EC1
:100D9000372F0B302000DB006230890BCD2EDB0BB0
:100DA000CD2E000020006D08031DD72ED82E372F22
:100DB0006C080319DC2EDD2EDE2E372F6008F200C2
:100DC0006108F300F401F50100308D31E82586312A
:100DD00075082000BB007408BA007308B9007208D7
:100DE000B8005F08B7005E08B6005D08B5005C0893
:100DF000B40080313720863120003708D100360812
:100E0000D0003508CF003408CE008C3172248631F2
:100E100020004F08DA004E08D9009531842586312C
:100E200001302000E0070030E13D6008F200610879
:100E3000F300F401F50100308D31E82586317508A5
:100E40002000A9007408A8007308A7007208A60073
:100E50004330AD00A530AC000030AB000030AA003C
:100E60008D315D258631031C362F372FC92E20008A
:100E7000E001E1010030F5000030F4000030F30043
:100E80000030F20000308D31E825863175082000F1
:100E9000A9007408A8007308A7007208A6004330D0
:100EA000AD00A530AC000030AB000030AA008D31A1
:100EB0005D258631031C5D2F5E2F5F2FE12F0B30E8
:100EC0002000DB006230890B632FDB0B632F0000F7
:100ED00020006D08031D6D2F6E2FE12F6C08031984
:100EE000722F732F742FE12F4330B300A530B2005F
:100EF0000030B1000030B0006008F2006108F3007B
:100F0000F401F50100308D31E825863175082000A7
:100F1000AF007408AE007308AD007208AC009631E3
:100F2000D526863120002F08BB002E08BA002D08D8
:100F3000B9002C08B8005F08B7005E08B6005D086D
:100F4000B5005C08B40080313720863120003708B6
:100F5000D1003608D0003508CF003408CE008C31DF
:100F60007224863120004F08DA004E08D9009531EE
:100F70008425863101302000E0070030E13D600823
:100F8000F2006108F300F401F50100308D31E8252D
:100F9000863175082000A9007408A8007308A7000E
:100FA0007208A6004330AD00A530AC000030AB00A5
:100FB0000030AA008D315D258631031CE02FE12F22
:100FC0005F2F00302000D900DA009531842586316A
:100FD00008007308F5007208F400F536F40CF536D5
:100FE000F40C74082C009B0072080339F4000530DF
:100FF000F435FF3E031DF82F74359A0008000800F1
:10100000200091150800F500F401751C0828092836
:101010000D287208F3007308F4070310F20D031093
:10102000F50C7508031D15281628052874080800F6
:1010300021003C1002302000A20022082100BB0049
:10104000292895311225883147289531172588316F
:1010500047282E082000A2002208A1000430A03E4C
:1010600086008701413F8A00403F0A008831200006
:10107000A300A4012408003A03193F2825282308C7
:10108000023A03192128013A0319212825280800CA
:1010900022008C018D018E01303021008C008D01E9
:1010A00007308E00023023008E008D018C01240059
:1010B0008D018C0105308E0025008C018D018E0183
:1010C00026008C018D018E013F3027008C00F0300E
:1010D0008D00FF308E0004303C00A00018303D0031
:1010E0009400193095000430920005303C00A100B6
:1010F00008002100BC158928953112258831AA28BD
:101100008831002088310330AA289531172588318D
:10111000AA282C082000A2002208A10021002108F2
:101120008A0020080A0088312000A300A4012408B6
:10113000003A03199C2885282308013A03198528B9
:10114000033A03197C28013A03197C28073A03194A
:101150008028852808002000AE0020002E08893154
:10116000F3218831003A0319B628B728AD2860303A
:10117000F7001630F8002C302000AD002D08F900E3
:101180009531ED2588310130F2000030F3002B302D
:101190009631092688310030F700F800F9019531C1
:1011A000FB2588319531302588319631B926883133
:1011B000013A0319DC28DD28D52808002000AD00FD
:1011C000AE0120002D088931F3218831003A03193E
:1011D000EA28EB28E1283C30F7001630F8002E30E2
:1011E0002000AC002C08F9009531ED258831013044
:1011F000F2000030F3002B309631092688310030A0
:10120000F700F800F9019531FB258831953130253B
:1012100088319631B9268831013A031910291129EC
:10122000092920002E0808002000B6000A30F2002C
:101230000030F3003608AF00B0012F08F40030088A
:10124000F5008B31AF23893172082000B1000430E2
:10125000B135890B28290A30F2000030F300360836
:10126000B200B3013208F4003308F5008B310523D6
:10127000893172080F3920003104B4003408B500F8
:10128000AB013508AF002F08AC0068308831AB20C7
:10129000893108002000B6000A30F2000030F30067
:1012A0003608AF00B0012F08F4003008F5008B318C
:1012B000AF23893172082000B1000430B135890BA9
:1012C0005E290A30F2000030F3003608B200B301A4
:1012D0003208F4003308F5008B3105238931720898
:1012E0000F3920003104B4003408B500AB01AB0A5B
:1012F0003508AF002F08AC0068308831AB20893149
:10130000080000302000D900DA00953184258931A9
:1013100034302000DB00F130890B8C29DB0B8C2969
:1013200000320A308A31B522893134302000DB00A6
:10133000F130890B9929DB0B99290032F430200018
:10134000D9000130DA00953184258931033020003D
:10135000DC000830DB007730890BAC29DB0BAC29D3
:10136000DC0BAC2900302000D900DA00953184254F
:10137000893108002000B6000A30F2000030F30086
:101380003608AF00B0012F08F4003008F5008B31AB
:10139000AF23893172082000B1000430B135890BC8
:1013A000CE290A30F2000030F3003608B200B30153
:1013B0003208F4003308F5008B31052389317208B7
:1013C0000F3920003104B4003408B5000230AF00FA
:1013D0002F08AB003508B0003008AC006830883109
:1013E000AB2089310800F300F401F40A21003C1914
:1013F000FA29FB292B2A7308F2007208B600BC10E8
:101400003C153C100E30F2007208BA00F430B40003
:101410000130B500BC15D230A0001430A100AC01E1
:10142000D230A2001430A300AD01D230A400143099
:10143000A500AE01D230A6001430A700AF01D43011
:10144000A8001430A900B0019431D6248931953117
:10145000D2258931F40174080800F701F8017208F7
:1014600073040319342A352A642AF901F90A412A36
:101470000130F235F30D890B392A0130F600760878
:10148000F907F31F442A452A382A0130F735F80DA9
:10149000890B462A73087502031D502A72087402CC
:1014A000031C532A542A592A7208F4027308F53B84
:1014B00077140130F336F20C890B5A2A0130F90205
:1014C000031D632A642A452A7808F3007708F2008E
:1014D00008009431EB248A312000A2002100370853
:1014E000860087012000220881000130A200220826
:1014F0002100B7070130B8020030B93B3808390481
:101500000319832A842A892A9431FA248A310530DE
:10151000B42ABC15932A953126258A31B42A9531EF
:1015200021258A31B42A2C082000A2002208A1001B
:10153000210021088A0020080A008A312000A30027
:10154000A4012408003A0319A62A8F2A2308013A85
:1015500003198F2A033A03198B2A013A03198B2A9C
:10156000073A03198F2A8F2A0800F40020008C10F4
:101570000D128D120D138D138E110E128E120E136D
:101580000C108E13D92A0C14042B8C14042B0D165A
:10159000042B8D16042B0D17042B8D17042B8E1581
:1015A000042B0E16042B8E16042B0E17042B8E17ED
:1015B000042B7408F200F3017308003A0319E12ABE
:1015C000042B7208003A0319C32A013A0319C52AE9
:1015D000033A0319C72A013A0319C92A073A03191A
:1015E000CB2A013A0319CD2A033A0319CF2A013A2B
:1015F0000319D12A0F3A0319D32A013A0319D52A1C
:10160000033A0319D72A042B0800F801F51F092B08
:101610000A2B112BF409F509F40A0319F50AF8014C
:10162000F80AF31F142B152B1A2BF209F309F20AEF
:101630000319F30A7208730403191F2B202B492B7B
:10164000F701F70A2C2B0130F235F30D890B242B0F
:101650000130F6007608F707F31F2F2B302B232BD2
:1016600073087502031D362B72087402031C392B94
:101670003A2B3E2B7208F4027308F53B0130F33627
:10168000F20C890B3F2B0130F702031D482B492B2D
:10169000302B780803194D2B4E2B532BF409F509E9
:1016A000F40A0319F50A7508F3007408F20008003B
:1016B000953141258B31003A03195F2B602B922B1A
:1016C0006D2B953108258B31AE2B95310D258B3146
:1016D000AE2B953117258B31AE2B21002F08200022
:1016E000A2002208A1000630A03E86008701413FEB
:1016F0008A00403F0A008B312000A300A401240887
:10170000003A0319842B692B2308013A0319692B2A
:10171000033A0319612B013A0319652B073A0319A0
:10172000692B692B21003C101730A03E86008701F1
:10173000403F84008501810A00089431FE248B31EA
:1017400001302100B8020030B93B38083904031DCC
:10175000AA2BAB2BAD2B0630AE2B0330080020009C
:10176000A101F31FB42BB52BBC2BF209F309F20A2C
:101770000319F30AA101A10AF51FBF2BC02BC92B26
:10178000F409F509F40A0319F50A0130F6007608A0
:10179000A106A201A301720873040319D02BD12B57
:1017A000002CA001A00ADD2B0130F235F30D890BCE
:1017B000D52B0130F6007608A007F31FE02BE12BB4
:1017C000D42B0130A235A30D890BE22B73087502CF
:1017D000031DEC2B72087402031CEF2BF02BF52B6E
:1017E0007208F4027308F53B22140130F336F20C50
:1017F000890BF62B0130A002031DFF2B002CE12BDF
:1018000021080319042C052C0A2CA209A309A20AF9
:101810000319A30A2308F3002208F200080000308D
:101820002000D900DA00953184258C316830200001
:10183000DB00E430890B1A2CDB0B1A2C00000A3079
:101840008A31B5228C3168302000DB00E430890B0E
:10185000272CDB0B272C00006430F2000030F30053
:1018600020006F08F5006E08F4008A312D228C31BB
:1018700072088A31B5228C3120006F08DA006E08B8
:10188000D900953184258C310D302000DC002D30BD
:10189000DB00D730890B4A2CDB0B4A2CDC0B4A2CA3
:1018A000003200302000D900DA00953184258C31D7
:1018B000D0302000DB00C930890B5C2CDB0B5C2CAA
:1018C000003263308A31B5228C3103302000DC00D5
:1018D0000830DB007730890B6B2CDB0B6B2CDC0BBF
:1018E0006B2C080003102000500D510DD20052083F
:1018F000D8005808031D7D2C7E2C872C0030D10089
:101900000030D0000030CF000030CE00E62C4E0872
:10191000D2004F08D3005008D4005108D5001F3022
:10192000D536D40CD30CD20C890B902C5208D6008F
:101930005608D700D017FF30CE05FF30CF05FF3057
:10194000D0050030D1059630D802D81FA82CA92C7C
:10195000C12C5808803A973E0318AF2CB02CB12CFC
:101960007E2C0130D136D00CCF0CCE0C890BB22C92
:101970000130D2005208D807031DBF2CC02CB12C57
:10198000D62C20305802031CC62CC72CD12C7E2C00
:101990000130CE35CF0DD00DD10D890BC92C0130C2
:1019A000D8025808031DD52CD62CC82C570803196B
:1019B000DA2CDB2CE62CCE09CF09D009D109CE0ACE
:1019C0000319CF0A0319D00A0319D10A080020000D
:1019D0000E18EB2CEC2CF52C6D08031DF02CF12CC3
:1019E000F52C0130FA070030FB3D0E1CF82CF92CC9
:1019F0000D2D00307B02323003197A02031C012DB9
:101A0000022D0D2D01307B02903003197A0203184C
:101A10000A2D0B2D0D2DED01ED0A03307B02203038
:101A200003197A02031C152D162D1C2DEB01EB0A50
:101A30009030FA000130FB000E1C1F2D202D222DAE
:101A4000FA01FB010E19252D262D2F2D6C08031DE3
:101A50002A2D2B2D2F2D0130E8070030E93D0E1DDA
:101A6000322D332D472D00306902323003196802C0
:101A7000031C3B2D3C2D472D01306902903003198A
:101A800068020318442D452D472DEC01EC0A033064
:101A90006902203003196802031C4F2D502D562D6A
:101AA000EA01EA0A9030E8000130E9000E1D592DE4
:101AB0005A2D5C2DE801E9010800003020002605C0
:101AC000AE0000302705AF0080302805B0007F3021
:101AD0002905B100310830042F042E04031D712D97
:101AE000722D7A2D0030A9000030A8000030A70028
:101AF0000030A60000302A05AE0000302B05AF00F4
:101B000080302C05B0007F302D05B1003108300445
:101B10002F042E04031D8D2D8E2D962D0030AD002B
:101B20000030AC000030AB000030AA00A91F992D96
:101B30009A2DB22D0030AE000030AF000030B00062
:101B40008030B1002608AE022708AF3B2808B03B22
:101B50002908B13B3108A9003008A8002F08A700C8
:101B60002E08A600AD1FB52DB62DCE2D0030AE002F
:101B70000030AF000030B0008030B1002A08AE0263
:101B80002B08AF3B2C08B03B2D08B13B3108AD0012
:101B90003008AC002F08AB002E08AA008030A90640
:101BA0008030AD062D082902031DE02D2C082802E7
:101BB000031DE02D2B082702031DE02D2A08260215
:101BC0000318E32DE42DE62D0310E72D0314080080
:101BD0002000A00020080319EE2DEF2D032EF51F85
:101BE000F22DF32D032E7209A2007309A3007409CC
:101BF000A4007509A500A20A0319A30A0319A40ADF
:101C00000319A50A0B2E7508A5007408A400730813
:101C1000A3007208A2007508740473047204031D03
:101C2000122E132E1C2E0030F5000030F400003070
:101C3000F3000030F200942E9630F6007608A100F2
:101C40002C2E0130F6007608A1070130A536A40C31
:101C5000A30CA20C890B262EFE302505031D312E68
:101C6000322E212E462E0130F6007608A1070130D3
:101C7000A2070030A33D0030A43D0030A53D013057
:101C8000A536A40CA30CA20C890B402EFF30250511
:101C9000031D4B2E4C2E332E562E0130A102013047
:101CA000A235A30DA40DA50D890B502EA41B592EF2
:101CB0005A2E602E0230210203185F2E602E4D2E08
:101CC0002118632E642E6C2EFF30A205FF30A30571
:101CD0007F30A405FF30A5050310A10C2108F600F4
:101CE000F701F801F9011830F635F70DF80DF90D87
:101CF000890B742E7608A2047708A3047808A4043C
:101D00007908A50420080319862E872E8C2EF51F2E
:101D10008A2E8B2E8C2EA5172508F5002408F4009A
:101D20002308F3002208F20008002000E501E60184
:101D3000E7019731AA278E31E730F2000C30F3002B
:101D400095313B258E318B170B1797315F278E31DD
:101D50002000E2006208E500973118278E3120004C
:101D6000E2006208E400E601E7010B302000E20037
:101D70006230890BB92EE20BB92E000020006D08ED
:101D8000031DC32EC42EE12E6C08031DC82EC92EC0
:101D9000E12E6B08031DCD2ECE2EE12E6A0803190D
:101DA000D22ED32ED42EE12E0130E6070030E73DAF
:101DB00006306702403003196602031CE02EE12E54
:101DC000B52E6D08031DE52EE62E202F6C08031D91
:101DD000EA2EEB2E202F6B08031DEF2EF02E202F66
:101DE0006A08031DF42EF52E202F0A30F200003071
:101DF000F3006508E200E3016208F4006308F500FF
:101E00008B31AF238E3172088A31B5228E31863103
:101E10007A268E310A30F2000030F3002000650887
:101E2000E200E3016208F4006308F5008B3105234A
:101E30008E3172088A31B5228E3186317A268E3102
:101E40002000E601E7010B302000E2006230890B40
:101E5000272FE20B272F000020006D08031D312FD4
:101E6000322F4F2F6C08031D362F372F4F2F6B0843
:101E7000031D3B2F3C2F4F2F6A080319402F412F82
:101E8000422F4F2F0130E6070030E73D0130670257
:101E9000683003196602031C4E2F4F2F232F6D0845
:101EA000031D532F542F8E2F6C08031D582F592FAD
:101EB0008E2F6B08031D5D2F5E2F8E2F6A08031D6A
:101EC000622F632F8E2F0A30F2000030F300640877
:101ED000E200E3016208F4006308F5008B31AF23F0
:101EE0008E3172088A31B5228E3186317A268E3152
:101EF0000A30F2000030F30020006408E200E30141
:101F00006208F4006308F5008B3105238E317208F6
:101F10008A31B5228E3186317A268E3163308A310C
:101F2000B5228E3120006D080319972F982FB12FFD
:101F3000893181218E3101302000E2006208E507FD
:101F400018306502031CA52FA62FA72FE5016508F1
:101F50008931BA218E310030893114218E3120002F
:101F6000ED016C080319B52FB62FCF2F89318121D0
:101F70008E3101302000E2006208E4073C30640248
:101F8000031CC32FC42FC52FE401640889314A21E3
:101F90008E310030893114218E312000EC016B0824
:101FA0000319D32FD42FE62F00306F029730031977
:101FB0006E02031CDC2FDD2FE12F6430EE020030B7
:101FC000EF3B8C310F248E312000EB016A0803199E
:101FD000EA2FEB2FA52E03306F02843003196E0217
:101FE0000318F32FF42FF82F6430EE070030EF3D85
:101FF0008C310F248E312000EA01A52E8031192862
:1029A40001300800053008002000911108002400BF
:1029B4009512080021009111080024001614080043
:1029C4002400961408002400161508002400961507
:1029D40008002400110808008A302200970008002B
:1029E40016302100970008002400961616160800D9
:1029F4002400961216160800F200720824009100B2
:102A040008002100BC10BB010E3008009431E22400
:102A14009531013008009431E224953102300800E8
:102A24009431E2249531013008009431E524953144
:102A3400003008009431FA249531053008009431AF
:102A4400F62495310A3008009431F6249531093082
:102A540008002100BC10BB010E3008000030963184
:102A6400F52695310800863022009100313092001D
:102A7400080073082100BE007208BD00080024008D
:102A8400160E890C890C013908002000911D4B2D6C
:102A94004C2D472D0800640080010131890B4E2D17
:102AA400003421003C109431E824953104300800AE
:102AB400320091019201930194019501960108005D
:102AC4004F3020009E009D01911004309F000800AB
:102AD40021003C1436359431FE249531033008002E
:102AE400240094010830950096014F30920095120D
:102AF40008006030320099009B019D0107309F005F
:102B04009E01080020005A08F3005908F20087319A
:102B1400E9279531080021003C140314360D943143
:102B2400FE24953105300800F930280096009501FF
:102B340020009210073028009700080080302C00F5
:102B440099000F309800C03097001F08FC390138F5
:102B54009F00080080302C009C00F9309B00C0309E
:102B64009A001F08F33908389F00080021003D0827
:102B74003E040319BE2DBF2DC42D3E088A003D0816
:102B84000A0095310800CC2D9531472595319731B0
:102B9400D22795312100BC18D02DD12DC62D080087
:102BA4002400951AD62DD72DDE2D940108309500DA
:102BB40096014F3092009516080020001110210054
:102BC4004008F1003F08F0009631192695319531FF
:102BD400B825953108007808F3007708F2007908E1
:102BE4002000A0002008F40000309731842795319C
:102BF40008007808F3007708F20079082000A000A4
:102C04002008F40002309731842795310800F5003C
:102C14002100BC1D0E2E0F2E182E7508F40074080A
:102C2400B7007308B9007208B800BC11080020008E
:102C34001B1D1D2E1E2E252E1B1071089A007008B8
:102C440099001B14292E71089A0070089900080035
:102C54000230F2000030F3002000210896310926EA
:102C640096310030F700F800F9019531ED259631E1
:102C7400043008000130F2000030F3002000210885
:102C84009631092696310030F700F800F9019531A4
:102C9400ED259631023008000230F2000030F300D6
:102CA400200021089631092696310030F700F800FB
:102CB400F9019531ED259631023008000130F2001A
:102CC4000030F300200021089631092696310030A7
:102CD400F700F800F9019531ED259631043008002C
:102CE40008303E00910010309200113093000830FB
:102CF4009400083095000230960008309700203088
:102D04009800990182309000080020009C018330D3
:102D14009A00990111101A082100C0002000190816
:102D24002100BF001114FF30F2000730F300953189
:102D34003B259631413020009B00080020002108EB
:102D440086008701403FF200413FF3002108023E24
:102D54008600870101089631092696310030F70074
:102D6400F800F9019531ED25963102300800F301A0
:102D7400F30A2100BC18BF2EC02ED32E3C11FF3005
:102D8400F2007208B6009431D62496319431DC24D2
:102D940096319431D924963121003B08F20072080F
:102DA400F3007308080080302000AF063308F500F4
:102DB4003208F4003108F3003008F2002F08F9005B
:102DC4002E08F8002D08F7002C08F60082318E2218
:102DD400963175082000AF007408AE007308AD008A
:102DE4007208AC0008002000A900AA01AA0A210068
:102DF400BC18FD2EFE2E152FBC142000AA01290894
:102E04000319052F062F0A2F2100BA01BA0A0F2F22
:102E14000230A80028082100BA009431DF2496313A
:102E24009531C525963120002A0808002000AB0101
:102E3400AB0A68308831DE2097312000AF002F08BC
:102E4400B3000F303305AF000A30B0003008F20091
:102E54003308B1000430B136890B2D2F3108883185
:102E64000320973120002F07B2003208B300330843
:102E740008002000A400A001A1017208F400F501DB
:102E84007408A2007508A300241C492F4A2F4E2F52
:102E94002208A0072308A13D0130A235A30D890B08
:102EA4004F2F0310A40C2408031D592F5A2F462F0B
:102EB4002108F3002008F200080002302000AF00CF
:102EC4002F08AB0068308831DE2097312000B00035
:102ED4003008B3000F303305AF000A30B0003008BB
:102EE400F2003308B1000430B136890B762F310873
:102EF40088310320973120002F07B2003208B30035
:102F040033080800F6007208730403198A2F8B2F04
:102F14009C2F7635A03E860087017208C03F730857
:102F2400C13F7408F5007608AC3E86008701750839
:102F34008100A92F7635A03E86008701D230C03F9C
:102F44001430C13F7608AC3E860087018101080039
:102F540095315A259731953172259731883148201A
:102F6400973195317B2597319431F22497319431FF
:102F7400EE24973195319625973195316225973115
:102F84009531AC2597319631722697319531352597
:102F940097319531A02597319631872697310800CE
:102FA4009431D624973121003C1CD92FDA2FE82FF5
:102FB400953141259731003A0319E12FE22FE82F8B
:102FC4000F302000A50025082100BA0021003A088E
:102FD4002000A500A601A535A60D00302507840014
:102FE4009830263D8500013F8A00003F0A00973152
:102FF4002000A70027082100BA0008000334153474
:103004008D3415346A34153458340B3469340A3425
:103014005334153479340834083415340D341534E4
:1030240012341534173415341C3415342134153442
:10303400263415342B341534183408340034003451
:0C304400A53443344034063468340134B1
:020000040001F9
:08000E008C3FF23FFF1FFF3F92
:00000001FF
